101123456789 123456789 2401180944A094101PNC Bank               Microsoft Inc.         00000000
5200companyName     companyDiscretionarycompanyID PPDEntryDescr110203110102   1DFINumbe0000001
6221234567891313131313       0000002200ID Number      ID Name               De1123456780000001
705Monthly bill                                                                    00010000001
6271234567891313131313       0000002700ID Number      ID Name               De0123456780000002
80000000030024691356000000002700000000002200companyID                          DFINumbe0000001
9000001000001000000020024691356000000002700000000002200                                       
9999999999999999999999999999999999999999999999999999999999999999999999999999999999999999999999
9999999999999999999999999999999999999999999999999999999999999999999999999999999999999999999999
9999999999999999999999999999999999999999999999999999999999999999999999999999999999999999999999
